{
  "contractName": "Voting",
  "abi": [
    {
      "inputs": [
        {
          "internalType": "string",
          "name": "_ballotOfficialName",
          "type": "string"
        },
        {
          "internalType": "string",
          "name": "_proposal",
          "type": "string"
        }
      ],
      "stateMutability": "nonpayable",
      "type": "constructor"
    },
    {
      "anonymous": false,
      "inputs": [
        {
          "indexed": false,
          "internalType": "string",
          "name": "choice",
          "type": "string"
        }
      ],
      "name": "choiceAdded",
      "type": "event"
    },
    {
      "anonymous": false,
      "inputs": [
        {
          "indexed": false,
          "internalType": "address",
          "name": "voter",
          "type": "address"
        }
      ],
      "name": "voteDone",
      "type": "event"
    },
    {
      "anonymous": false,
      "inputs": [],
      "name": "voteEnded",
      "type": "event"
    },
    {
      "anonymous": false,
      "inputs": [],
      "name": "voteStarted",
      "type": "event"
    },
    {
      "anonymous": false,
      "inputs": [
        {
          "indexed": false,
          "internalType": "address",
          "name": "voter",
          "type": "address"
        }
      ],
      "name": "voterAdded",
      "type": "event"
    },
    {
      "inputs": [],
      "name": "ballotOfficialAddress",
      "outputs": [
        {
          "internalType": "address",
          "name": "",
          "type": "address"
        }
      ],
      "stateMutability": "view",
      "type": "function",
      "constant": true
    },
    {
      "inputs": [],
      "name": "ballotOfficialName",
      "outputs": [
        {
          "internalType": "string",
          "name": "",
          "type": "string"
        }
      ],
      "stateMutability": "view",
      "type": "function",
      "constant": true
    },
    {
      "inputs": [],
      "name": "choiceCount",
      "outputs": [
        {
          "internalType": "uint256",
          "name": "",
          "type": "uint256"
        }
      ],
      "stateMutability": "view",
      "type": "function",
      "constant": true
    },
    {
      "inputs": [
        {
          "internalType": "uint256",
          "name": "",
          "type": "uint256"
        }
      ],
      "name": "choices",
      "outputs": [
        {
          "internalType": "string",
          "name": "",
          "type": "string"
        }
      ],
      "stateMutability": "view",
      "type": "function",
      "constant": true
    },
    {
      "inputs": [],
      "name": "proposal",
      "outputs": [
        {
          "internalType": "string",
          "name": "",
          "type": "string"
        }
      ],
      "stateMutability": "view",
      "type": "function",
      "constant": true
    },
    {
      "inputs": [
        {
          "internalType": "uint256",
          "name": "",
          "type": "uint256"
        }
      ],
      "name": "result",
      "outputs": [
        {
          "internalType": "string",
          "name": "",
          "type": "string"
        }
      ],
      "stateMutability": "view",
      "type": "function",
      "constant": true
    },
    {
      "inputs": [],
      "name": "state",
      "outputs": [
        {
          "internalType": "enum Voting.State",
          "name": "",
          "type": "uint8"
        }
      ],
      "stateMutability": "view",
      "type": "function",
      "constant": true
    },
    {
      "inputs": [],
      "name": "totalVote",
      "outputs": [
        {
          "internalType": "uint256",
          "name": "",
          "type": "uint256"
        }
      ],
      "stateMutability": "view",
      "type": "function",
      "constant": true
    },
    {
      "inputs": [],
      "name": "totalVoter",
      "outputs": [
        {
          "internalType": "uint256",
          "name": "",
          "type": "uint256"
        }
      ],
      "stateMutability": "view",
      "type": "function",
      "constant": true
    },
    {
      "inputs": [
        {
          "internalType": "address",
          "name": "",
          "type": "address"
        }
      ],
      "name": "voterRegister",
      "outputs": [
        {
          "internalType": "string",
          "name": "voterName",
          "type": "string"
        },
        {
          "internalType": "bool",
          "name": "voted",
          "type": "bool"
        }
      ],
      "stateMutability": "view",
      "type": "function",
      "constant": true
    },
    {
      "inputs": [
        {
          "internalType": "string",
          "name": "_choice",
          "type": "string"
        }
      ],
      "name": "addChoice",
      "outputs": [],
      "stateMutability": "nonpayable",
      "type": "function"
    },
    {
      "inputs": [
        {
          "internalType": "address",
          "name": "_voterAddress",
          "type": "address"
        },
        {
          "internalType": "string",
          "name": "_voterName",
          "type": "string"
        }
      ],
      "name": "addVoter",
      "outputs": [],
      "stateMutability": "nonpayable",
      "type": "function"
    },
    {
      "inputs": [],
      "name": "startVote",
      "outputs": [],
      "stateMutability": "nonpayable",
      "type": "function"
    },
    {
      "inputs": [
        {
          "internalType": "string",
          "name": "_choice",
          "type": "string"
        }
      ],
      "name": "doVote",
      "outputs": [
        {
          "internalType": "bool",
          "name": "voted",
          "type": "bool"
        }
      ],
      "stateMutability": "nonpayable",
      "type": "function"
    },
    {
      "inputs": [],
      "name": "endVote",
      "outputs": [],
      "stateMutability": "nonpayable",
      "type": "function"
    },
    {
      "inputs": [
        {
          "internalType": "string",
          "name": "_choice",
          "type": "string"
        }
      ],
      "name": "getVote",
      "outputs": [
        {
          "internalType": "uint256",
          "name": "voteCount",
          "type": "uint256"
        }
      ],
      "stateMutability": "view",
      "type": "function",
      "constant": true
    }
  ],
  "bytecode": "0x608060405260008055600060015560006002553480156200001f57600080fd5b5060405162001b1938038062001b1983398181016040528101906200004591906200033b565b33600360006101000a81548173ffffffffffffffffffffffffffffffffffffffff021916908373ffffffffffffffffffffffffffffffffffffffff16021790555081600490805190602001906200009e929190620000ee565b508060059080519060200190620000b7929190620000ee565b506000600a60006101000a81548160ff02191690836002811115620000e157620000e0620003c0565b5b0217905550505062000453565b828054620000fc906200041e565b90600052602060002090601f0160209004810192826200012057600085556200016c565b82601f106200013b57805160ff19168380011785556200016c565b828001600101855582156200016c579182015b828111156200016b5782518255916020019190600101906200014e565b5b5090506200017b91906200017f565b5090565b5b808211156200019a57600081600090555060010162000180565b5090565b6000604051905090565b600080fd5b600080fd5b600080fd5b600080fd5b6000601f19601f8301169050919050565b7f4e487b7100000000000000000000000000000000000000000000000000000000600052604160045260246000fd5b6200020782620001bc565b810181811067ffffffffffffffff82111715620002295762000228620001cd565b5b80604052505050565b60006200023e6200019e565b90506200024c8282620001fc565b919050565b600067ffffffffffffffff8211156200026f576200026e620001cd565b5b6200027a82620001bc565b9050602081019050919050565b60005b83811015620002a75780820151818401526020810190506200028a565b83811115620002b7576000848401525b50505050565b6000620002d4620002ce8462000251565b62000232565b905082815260208101848484011115620002f357620002f2620001b7565b5b6200030084828562000287565b509392505050565b600082601f83011262000320576200031f620001b2565b5b815162000332848260208601620002bd565b91505092915050565b60008060408385031215620003555762000354620001a8565b5b600083015167ffffffffffffffff811115620003765762000375620001ad565b5b620003848582860162000308565b925050602083015167ffffffffffffffff811115620003a857620003a7620001ad565b5b620003b68582860162000308565b9150509250929050565b7f4e487b7100000000000000000000000000000000000000000000000000000000600052602160045260246000fd5b7f4e487b7100000000000000000000000000000000000000000000000000000000600052602260045260246000fd5b600060028204905060018216806200043757607f821691505b6020821081036200044d576200044c620003ef565b5b50919050565b6116b680620004636000396000f3fe608060405234801561001057600080fd5b50600436106101005760003560e01c8063af15408711610097578063d9e95a9811610066578063d9e95a981461028c578063de975d18146102a8578063f1cea4c7146102c6578063f6fd7fde146102e457610100565b8063af15408714610203578063b922394614610234578063baa40e5c1461023e578063c19d93fb1461026e57610100565b80635fa520bb116100d35780635fa520bb1461018d5780636332abc9146101a9578063753ec103146101c757806390949747146101e557610100565b8063240815b7146101055780633c5940591461012357806346f7374d146101535780634c0a6af014610183575b600080fd5b61010d610314565b60405161011a9190611029565b60405180910390f35b61013d60048036038101906101389190611084565b61031a565b60405161014a919061114a565b60405180910390f35b61016d600480360381019061016891906112a1565b6103ba565b60405161017a9190611305565b60405180910390f35b61018b61062f565b005b6101a760048036038101906101a291906112a1565b610724565b005b6101b161083c565b6040516101be9190611029565b60405180910390f35b6101cf610842565b6040516101dc919061114a565b60405180910390f35b6101ed6108d0565b6040516101fa9190611361565b60405180910390f35b61021d600480360381019061021891906113a8565b6108f6565b60405161022b9291906113d5565b60405180910390f35b61023c6109af565b005b610258600480360381019061025391906112a1565b610b06565b6040516102659190611029565b60405180910390f35b610276610bbc565b604051610283919061147c565b60405180910390f35b6102a660048036038101906102a19190611497565b610bcf565b005b6102b0610d60565b6040516102bd919061114a565b60405180910390f35b6102ce610dee565b6040516102db9190611029565b60405180910390f35b6102fe60048036038101906102f99190611084565b610df4565b60405161030b919061114a565b60405180910390f35b60025481565b6009602052806000526040600020600091509050805461033990611522565b80601f016020809104026020016040519081016040528092919081815260200182805461036590611522565b80156103b25780601f10610387576101008083540402835291602001916103b2565b820191906000526020600020905b81548152906001019060200180831161039557829003601f168201915b505050505081565b600060018060028111156103d1576103d0611405565b5b600a60009054906101000a900460ff1660028111156103f3576103f2611405565b5b146103fd57600080fd5b600080600860003373ffffffffffffffffffffffffffffffffffffffff1673ffffffffffffffffffffffffffffffffffffffff168152602001908152602001600020600001805461044d90611522565b9050141580156104aa5750600860003373ffffffffffffffffffffffffffffffffffffffff1673ffffffffffffffffffffffffffffffffffffffff16815260200190815260200160002060010160009054906101000a900460ff16155b156105ee576001600860003373ffffffffffffffffffffffffffffffffffffffff1673ffffffffffffffffffffffffffffffffffffffff16815260200190815260200160002060010160006101000a81548160ff021916908315150217905550610512610e94565b33816000019073ffffffffffffffffffffffffffffffffffffffff16908173ffffffffffffffffffffffffffffffffffffffff16815250508481602001819052508060076000600154815260200190815260200160002060008201518160000160006101000a81548173ffffffffffffffffffffffffffffffffffffffff021916908373ffffffffffffffffffffffffffffffffffffffff16021790555060208201518160010190805190602001906105cc929190610ec4565b50905050600160008154809291906105e390611582565b919050555060019150505b7f55c65cf9526efdf6c2252fe9757889dbd93e10172cad0f2edb1df619c88dbf7d3360405161061d9190611361565b60405180910390a18092505050919050565b600080600281111561064457610643611405565b5b600a60009054906101000a900460ff16600281111561066657610665611405565b5b1461067057600080fd5b600360009054906101000a900473ffffffffffffffffffffffffffffffffffffffff1673ffffffffffffffffffffffffffffffffffffffff163373ffffffffffffffffffffffffffffffffffffffff16146106ca57600080fd5b6001600a60006101000a81548160ff021916908360028111156106f0576106ef611405565b5b02179055507fd0dc01800a369fef30d3fced5275b8b916549867622e79efca5245c479fda4ea60405160405180910390a150565b600080600281111561073957610738611405565b5b600a60009054906101000a900460ff16600281111561075b5761075a611405565b5b1461076557600080fd5b600360009054906101000a900473ffffffffffffffffffffffffffffffffffffffff1673ffffffffffffffffffffffffffffffffffffffff163373ffffffffffffffffffffffffffffffffffffffff16146107bf57600080fd5b8160066000600254815260200190815260200160002090805190602001906107e8929190610ec4565b50600260008154809291906107fc90611582565b91905055507fba6b30eb3b7d3bc2fb7b79cfbce81c0bac85268f4fa985a5c5aa6f141fbf146582604051610830919061114a565b60405180910390a15050565b60005481565b6005805461084f90611522565b80601f016020809104026020016040519081016040528092919081815260200182805461087b90611522565b80156108c85780601f1061089d576101008083540402835291602001916108c8565b820191906000526020600020905b8154815290600101906020018083116108ab57829003601f168201915b505050505081565b600360009054906101000a900473ffffffffffffffffffffffffffffffffffffffff1681565b600860205280600052604060002060009150905080600001805461091990611522565b80601f016020809104026020016040519081016040528092919081815260200182805461094590611522565b80156109925780601f1061096757610100808354040283529160200191610992565b820191906000526020600020905b81548152906001019060200180831161097557829003601f168201915b5050505050908060010160009054906101000a900460ff16905082565b60018060028111156109c4576109c3611405565b5b600a60009054906101000a900460ff1660028111156109e6576109e5611405565b5b146109f057600080fd5b600360009054906101000a900473ffffffffffffffffffffffffffffffffffffffff1673ffffffffffffffffffffffffffffffffffffffff163373ffffffffffffffffffffffffffffffffffffffff1614610a4a57600080fd5b6002600a60006101000a81548160ff02191690836002811115610a7057610a6f611405565b5b021790555060005b600154811015610ad6576007600082815260200190815260200160002060010160096000838152602001908152602001600020908054610ab790611522565b610ac2929190610f4a565b508080610ace90611582565b915050610a78565b507f0deeca6c5a4a24936ed5053feb119562545a36119b158ecd0bb902a689be2d6660405160405180910390a150565b60006002806002811115610b1d57610b1c611405565b5b600a60009054906101000a900460ff166002811115610b3f57610b3e611405565b5b14610b4957600080fd5b6000805b600154811015610bb157848051906020012060076000838152602001908152602001600020600101604051610b829190611669565b604051809103902003610b9e578180610b9a90611582565b9250505b8080610ba990611582565b915050610b4d565b508092505050919050565b600a60009054906101000a900460ff1681565b6000806002811115610be457610be3611405565b5b600a60009054906101000a900460ff166002811115610c0657610c05611405565b5b14610c1057600080fd5b600360009054906101000a900473ffffffffffffffffffffffffffffffffffffffff1673ffffffffffffffffffffffffffffffffffffffff163373ffffffffffffffffffffffffffffffffffffffff1614610c6a57600080fd5b610c72610fd7565b828160000181905250600081602001901515908115158152505080600860008673ffffffffffffffffffffffffffffffffffffffff1673ffffffffffffffffffffffffffffffffffffffff1681526020019081526020016000206000820151816000019080519060200190610ce8929190610ec4565b5060208201518160010160006101000a81548160ff021916908315150217905550905050600080815480929190610d1e90611582565b91905055507fb9e5f9042e6c6eb94817f660cfa81afea9585e59d72bfc3348a2305cbd33e13384604051610d529190611361565b60405180910390a150505050565b60048054610d6d90611522565b80601f0160208091040260200160405190810160405280929190818152602001828054610d9990611522565b8015610de65780601f10610dbb57610100808354040283529160200191610de6565b820191906000526020600020905b815481529060010190602001808311610dc957829003601f168201915b505050505081565b60015481565b60066020528060005260406000206000915090508054610e1390611522565b80601f0160208091040260200160405190810160405280929190818152602001828054610e3f90611522565b8015610e8c5780601f10610e6157610100808354040283529160200191610e8c565b820191906000526020600020905b815481529060010190602001808311610e6f57829003601f168201915b505050505081565b6040518060400160405280600073ffffffffffffffffffffffffffffffffffffffff168152602001606081525090565b828054610ed090611522565b90600052602060002090601f016020900481019282610ef25760008555610f39565b82601f10610f0b57805160ff1916838001178555610f39565b82800160010185558215610f39579182015b82811115610f38578251825591602001919060010190610f1d565b5b509050610f469190610ff3565b5090565b828054610f5690611522565b90600052602060002090601f016020900481019282610f785760008555610fc6565b82601f10610f895780548555610fc6565b82800160010185558215610fc657600052602060002091601f016020900482015b82811115610fc5578254825591600101919060010190610faa565b5b509050610fd39190610ff3565b5090565b6040518060400160405280606081526020016000151581525090565b5b8082111561100c576000816000905550600101610ff4565b5090565b6000819050919050565b61102381611010565b82525050565b600060208201905061103e600083018461101a565b92915050565b6000604051905090565b600080fd5b600080fd5b61106181611010565b811461106c57600080fd5b50565b60008135905061107e81611058565b92915050565b60006020828403121561109a5761109961104e565b5b60006110a88482850161106f565b91505092915050565b600081519050919050565b600082825260208201905092915050565b60005b838110156110eb5780820151818401526020810190506110d0565b838111156110fa576000848401525b50505050565b6000601f19601f8301169050919050565b600061111c826110b1565b61112681856110bc565b93506111368185602086016110cd565b61113f81611100565b840191505092915050565b600060208201905081810360008301526111648184611111565b905092915050565b600080fd5b600080fd5b7f4e487b7100000000000000000000000000000000000000000000000000000000600052604160045260246000fd5b6111ae82611100565b810181811067ffffffffffffffff821117156111cd576111cc611176565b5b80604052505050565b60006111e0611044565b90506111ec82826111a5565b919050565b600067ffffffffffffffff82111561120c5761120b611176565b5b61121582611100565b9050602081019050919050565b82818337600083830152505050565b600061124461123f846111f1565b6111d6565b9050828152602081018484840111156112605761125f611171565b5b61126b848285611222565b509392505050565b600082601f8301126112885761128761116c565b5b8135611298848260208601611231565b91505092915050565b6000602082840312156112b7576112b661104e565b5b600082013567ffffffffffffffff8111156112d5576112d4611053565b5b6112e184828501611273565b91505092915050565b60008115159050919050565b6112ff816112ea565b82525050565b600060208201905061131a60008301846112f6565b92915050565b600073ffffffffffffffffffffffffffffffffffffffff82169050919050565b600061134b82611320565b9050919050565b61135b81611340565b82525050565b60006020820190506113766000830184611352565b92915050565b61138581611340565b811461139057600080fd5b50565b6000813590506113a28161137c565b92915050565b6000602082840312156113be576113bd61104e565b5b60006113cc84828501611393565b91505092915050565b600060408201905081810360008301526113ef8185611111565b90506113fe60208301846112f6565b9392505050565b7f4e487b7100000000000000000000000000000000000000000000000000000000600052602160045260246000fd5b6003811061144557611444611405565b5b50565b600081905061145682611434565b919050565b600061146682611448565b9050919050565b6114768161145b565b82525050565b6000602082019050611491600083018461146d565b92915050565b600080604083850312156114ae576114ad61104e565b5b60006114bc85828601611393565b925050602083013567ffffffffffffffff8111156114dd576114dc611053565b5b6114e985828601611273565b9150509250929050565b7f4e487b7100000000000000000000000000000000000000000000000000000000600052602260045260246000fd5b6000600282049050600182168061153a57607f821691505b60208210810361154d5761154c6114f3565b5b50919050565b7f4e487b7100000000000000000000000000000000000000000000000000000000600052601160045260246000fd5b600061158d82611010565b91507fffffffffffffffffffffffffffffffffffffffffffffffffffffffffffffffff82036115bf576115be611553565b5b600182019050919050565b600081905092915050565b60008190508160005260206000209050919050565b600081546115f781611522565b61160181866115ca565b9450600182166000811461161c576001811461162d57611660565b60ff19831686528186019350611660565b611636856115d5565b60005b8381101561165857815481890152600182019150602081019050611639565b838801955050505b50505092915050565b600061167582846115ea565b91508190509291505056fea264697066735822122009d3dc8d47dd0735d6e5af3b704d90a4a6feb76aeb9744e54690a8b2b58e4d4b64736f6c634300080d0033",
  "immutableReferences": {},
  "source": "// SPDX-License-Identifier: Unlicensed\r\n\r\npragma solidity >=0.7.0 <0.9.0;\r\n\r\ncontract Voting {\r\n    struct Vote {\r\n        address voterAddress;\r\n        string choice;\r\n    }\r\n\r\n    struct Voter {\r\n        string voterName;\r\n        bool voted;\r\n    }\r\n\r\n    uint256 public totalVoter = 0;\r\n    uint256 public totalVote = 0;\r\n    uint256 public choiceCount = 0;\r\n\r\n    address public ballotOfficialAddress;\r\n    string public ballotOfficialName;\r\n    string public proposal;\r\n\r\n    mapping(uint256 => string) public choices;\r\n    mapping(uint256 => Vote) private votes;\r\n    mapping(address => Voter) public voterRegister;\r\n    mapping(uint256 => string) public result;\r\n\r\n    enum State {\r\n        Created,\r\n        Voting,\r\n        Ended\r\n    }\r\n    State public state;\r\n\r\n    constructor(string memory _ballotOfficialName, string memory _proposal) {\r\n        ballotOfficialAddress = msg.sender;\r\n        ballotOfficialName = _ballotOfficialName;\r\n        proposal = _proposal;\r\n\r\n        state = State.Created;\r\n    }\r\n\r\n    modifier condition(bool _condition) {\r\n        require(_condition);\r\n        _;\r\n    }\r\n\r\n    modifier onlyOfficial() {\r\n        require(msg.sender == ballotOfficialAddress);\r\n        _;\r\n    }\r\n\r\n    modifier inState(State _state) {\r\n        require(state == _state);\r\n        _;\r\n    }\r\n\r\n    event voterAdded(address voter);\r\n    event choiceAdded(string choice);\r\n    event voteStarted();\r\n    event voteEnded();\r\n    event voteDone(address voter);\r\n\r\n    // Add Choice\r\n    function addChoice(string memory _choice)\r\n        public\r\n        inState(State.Created)\r\n        onlyOfficial\r\n    {\r\n        choices[choiceCount] = _choice;\r\n        choiceCount++;\r\n        emit choiceAdded(_choice);\r\n    }\r\n\r\n    // Add Voter\r\n    function addVoter(address _voterAddress, string memory _voterName)\r\n        public\r\n        inState(State.Created)\r\n        onlyOfficial\r\n    {\r\n        Voter memory v;\r\n        v.voterName = _voterName;\r\n        v.voted = false;\r\n        voterRegister[_voterAddress] = v;\r\n        totalVoter++;\r\n        emit voterAdded(_voterAddress);\r\n    }\r\n\r\n    // Declare voting starts now\r\n    function startVote() public inState(State.Created) onlyOfficial {\r\n        state = State.Voting;\r\n        emit voteStarted();\r\n    }\r\n\r\n    // Voters vote by indicating their choice\r\n    function doVote(string memory _choice)\r\n        public\r\n        inState(State.Voting)\r\n        returns (bool voted)\r\n    {\r\n        bool found = false;\r\n\r\n        if (\r\n            bytes(voterRegister[msg.sender].voterName).length != 0 &&\r\n            !voterRegister[msg.sender].voted\r\n        ) {\r\n            voterRegister[msg.sender].voted = true;\r\n            Vote memory v;\r\n            v.voterAddress = msg.sender;\r\n            v.choice = _choice;\r\n\r\n            votes[totalVote] = v;\r\n            totalVote++;\r\n\r\n            found = true;\r\n        }\r\n        emit voteDone(msg.sender);\r\n        return found;\r\n    }\r\n\r\n    // End Votes\r\n    function endVote() public inState(State.Voting) onlyOfficial {\r\n        state = State.Ended;\r\n\r\n        for (uint256 i = 0; i < totalVote; i++) {\r\n            result[i] = votes[i].choice;\r\n        }\r\n\r\n        emit voteEnded();\r\n    }\r\n\r\n    // Get Votes\r\n    function getVote(string memory _choice)\r\n        public\r\n        view\r\n        inState(State.Ended)\r\n        returns (uint256 voteCount)\r\n    {\r\n        uint256 count = 0;\r\n\r\n        for (uint256 i = 0; i < totalVote; i++) {\r\n            if (\r\n                keccak256(bytes(votes[i].choice)) == keccak256(bytes(_choice))\r\n            ) {\r\n                count++;\r\n            }\r\n        }\r\n\r\n        return count;\r\n    }\r\n}\r\n",
  "sourcePath": "C:\\Users\\Acer\\Desktop\\project_works\\Voting-System\\src\\contracts\\Voting.sol",
  "compiler": {
    "name": "solc",
    "version": "0.8.13+commit.abaa5c0e.Emscripten.clang"
  },
  "schemaVersion": "3.4.16",
  "updatedAt": "2024-11-27T17:16:20.604Z",
  "networkType": "ethereum",
  "devdoc": {
    "kind": "dev",
    "methods": {},
    "version": 1
  },
  "userdoc": {
    "kind": "user",
    "methods": {},
    "version": 1
  }
}